{
  "abi": [
    {
      "constant": false,
      "inputs": [
        {
          "name": "opcao",
          "type": "bytes32"
        }
      ],
      "name": "votarNaOpcao",
      "outputs": [],
      "payable": false,
      "stateMutability": "nonpayable",
      "type": "function"
    },
    {
      "constant": true,
      "inputs": [
        {
          "name": "opcao",
          "type": "bytes32"
        }
      ],
      "name": "votosTotais",
      "outputs": [
        {
          "name": "",
          "type": "uint256"
        }
      ],
      "payable": false,
      "stateMutability": "view",
      "type": "function"
    },
    {
      "constant": true,
      "inputs": [
        {
          "name": "",
          "type": "uint256"
        }
      ],
      "name": "opcoes",
      "outputs": [
        {
          "name": "",
          "type": "bytes32"
        }
      ],
      "payable": false,
      "stateMutability": "view",
      "type": "function"
    },
    {
      "constant": true,
      "inputs": [
        {
          "name": "",
          "type": "bytes32"
        }
      ],
      "name": "votosRecebidos",
      "outputs": [
        {
          "name": "",
          "type": "uint256"
        }
      ],
      "payable": false,
      "stateMutability": "view",
      "type": "function"
    },
    {
      "constant": true,
      "inputs": [
        {
          "name": "opcao",
          "type": "bytes32"
        }
      ],
      "name": "opcaoValida",
      "outputs": [
        {
          "name": "",
          "type": "bool"
        }
      ],
      "payable": false,
      "stateMutability": "view",
      "type": "function"
    },
    {
      "inputs": [
        {
          "name": "options",
          "type": "bytes32[]"
        }
      ],
      "payable": false,
      "stateMutability": "nonpayable",
      "type": "constructor"
    }
  ],
  "bytecode": "608060405234801561001057600080fd5b506040516103aa3803806103aa8339810180604052602081101561003357600080fd5b81019080805164010000000081111561004b57600080fd5b8201602081018481111561005e57600080fd5b815185602082028301116401000000008211171561007b57600080fd5b50508051909350610095925060019150602084019061009c565b5050610104565b8280548282559060005260206000209081019282156100d7579160200282015b828111156100d75782518255916020019190600101906100bc565b506100e39291506100e7565b5090565b61010191905b808211156100e357600081556001016100ed565b90565b610297806101136000396000f3fe608060405234801561001057600080fd5b50600436106100575760003560e01c806374d492821461005c5780637dcbaccc1461007b5780639697d17e146100aa578063a2873c72146100c7578063f9f7d2df146100e4575b600080fd5b6100796004803603602081101561007257600080fd5b5035610115565b005b6100986004803603602081101561009157600080fd5b5035610173565b60408051918252519081900360200190f35b610098600480360360208110156100c057600080fd5b50356101d2565b610098600480360360208110156100dd57600080fd5b50356101f0565b610101600480360360208110156100fa57600080fd5b5035610202565b604080519115158252519081900360200190f35b61011e81610202565b61015c57604051600160e51b62461bcd02815260040180806020018281038252602181526020018061024b6021913960400191505060405180910390fd5b600090815260208190526040902080546001019055565b600061017e82610202565b6101bc57604051600160e51b62461bcd02815260040180806020018281038252602181526020018061024b6021913960400191505060405180910390fd5b506000818152602081905260409020545b919050565b600181815481106101df57fe5b600091825260209091200154905081565b60006020819052908152604090205481565b6000805b60015481101561024157826001828154811061021e57fe5b906000526020600020015414156102395760019150506101cd565b600101610206565b5060009291505056fe41206f70c383c2a7c383c2a36f2064657665207365722076c383c2a16c69646121a165627a7a723058207c4111a00ef23c082d5d78d77b389967198cffdc348df5680a2ddca3db8424e40029",
  "bytecodeSha1": "ba48ee6b5e1f18372435aee5f6bfe70e38511875",
  "compiler": {
    "optimize": true,
    "runs": 200,
    "version": "Version: 0.5.7+commit.6da8b019.Windows.msvc\r"
  },
  "contractName": "Votacao",
  "coverageMapTotals": {
    "Votacao.opcaoValida": 6,
    "Votacao.votarNaOpcao": 3,
    "Votacao.votosRecebidos": 1,
    "Votacao.votosTotais": 4,
    "total": 14
  },
  "opcodes": "PUSH1 0x80 PUSH1 0x40 MSTORE CALLVALUE DUP1 ISZERO PUSH2 0x10 JUMPI PUSH1 0x0 DUP1 REVERT JUMPDEST POP PUSH1 0x4 CALLDATASIZE LT PUSH2 0x57 JUMPI PUSH1 0x0 CALLDATALOAD PUSH1 0xE0 SHR DUP1 PUSH4 0x74D49282 EQ PUSH2 0x5C JUMPI DUP1 PUSH4 0x7DCBACCC EQ PUSH2 0x7B JUMPI DUP1 PUSH4 0x9697D17E EQ PUSH2 0xAA JUMPI DUP1 PUSH4 0xA2873C72 EQ PUSH2 0xC7 JUMPI DUP1 PUSH4 0xF9F7D2DF EQ PUSH2 0xE4 JUMPI JUMPDEST PUSH1 0x0 DUP1 REVERT JUMPDEST PUSH2 0x79 PUSH1 0x4 DUP1 CALLDATASIZE SUB PUSH1 0x20 DUP2 LT ISZERO PUSH2 0x72 JUMPI PUSH1 0x0 DUP1 REVERT JUMPDEST POP CALLDATALOAD PUSH2 0x115 JUMP JUMPDEST STOP JUMPDEST PUSH2 0x98 PUSH1 0x4 DUP1 CALLDATASIZE SUB PUSH1 0x20 DUP2 LT ISZERO PUSH2 0x91 JUMPI PUSH1 0x0 DUP1 REVERT JUMPDEST POP CALLDATALOAD PUSH2 0x173 JUMP JUMPDEST PUSH1 0x40 DUP1 MLOAD SWAP2 DUP3 MSTORE MLOAD SWAP1 DUP2 SWAP1 SUB PUSH1 0x20 ADD SWAP1 RETURN JUMPDEST PUSH2 0x98 PUSH1 0x4 DUP1 CALLDATASIZE SUB PUSH1 0x20 DUP2 LT ISZERO PUSH2 0xC0 JUMPI PUSH1 0x0 DUP1 REVERT JUMPDEST POP CALLDATALOAD PUSH2 0x1D2 JUMP JUMPDEST PUSH2 0x98 PUSH1 0x4 DUP1 CALLDATASIZE SUB PUSH1 0x20 DUP2 LT ISZERO PUSH2 0xDD JUMPI PUSH1 0x0 DUP1 REVERT JUMPDEST POP CALLDATALOAD PUSH2 0x1F0 JUMP JUMPDEST PUSH2 0x101 PUSH1 0x4 DUP1 CALLDATASIZE SUB PUSH1 0x20 DUP2 LT ISZERO PUSH2 0xFA JUMPI PUSH1 0x0 DUP1 REVERT JUMPDEST POP CALLDATALOAD PUSH2 0x202 JUMP JUMPDEST PUSH1 0x40 DUP1 MLOAD SWAP2 ISZERO ISZERO DUP3 MSTORE MLOAD SWAP1 DUP2 SWAP1 SUB PUSH1 0x20 ADD SWAP1 RETURN JUMPDEST PUSH2 0x11E DUP2 PUSH2 0x202 JUMP JUMPDEST PUSH2 0x15C JUMPI PUSH1 0x40 MLOAD PUSH1 0x1 PUSH1 0xE5 SHL PUSH3 0x461BCD MUL DUP2 MSTORE PUSH1 0x4 ADD DUP1 DUP1 PUSH1 0x20 ADD DUP3 DUP2 SUB DUP3 MSTORE PUSH1 0x21 DUP2 MSTORE PUSH1 0x20 ADD DUP1 PUSH2 0x24B PUSH1 0x21 SWAP2 CODECOPY PUSH1 0x40 ADD SWAP2 POP POP PUSH1 0x40 MLOAD DUP1 SWAP2 SUB SWAP1 REVERT JUMPDEST PUSH1 0x0 SWAP1 DUP2 MSTORE PUSH1 0x20 DUP2 SWAP1 MSTORE PUSH1 0x40 SWAP1 KECCAK256 DUP1 SLOAD PUSH1 0x1 ADD SWAP1 SSTORE JUMP JUMPDEST PUSH1 0x0 PUSH2 0x17E DUP3 PUSH2 0x202 JUMP JUMPDEST PUSH2 0x1BC JUMPI PUSH1 0x40 MLOAD PUSH1 0x1 PUSH1 0xE5 SHL PUSH3 0x461BCD MUL DUP2 MSTORE PUSH1 0x4 ADD DUP1 DUP1 PUSH1 0x20 ADD DUP3 DUP2 SUB DUP3 MSTORE PUSH1 0x21 DUP2 MSTORE PUSH1 0x20 ADD DUP1 PUSH2 0x24B PUSH1 0x21 SWAP2 CODECOPY PUSH1 0x40 ADD SWAP2 POP POP PUSH1 0x40 MLOAD DUP1 SWAP2 SUB SWAP1 REVERT JUMPDEST POP PUSH1 0x0 DUP2 DUP2 MSTORE PUSH1 0x20 DUP2 SWAP1 MSTORE PUSH1 0x40 SWAP1 KECCAK256 SLOAD JUMPDEST SWAP2 SWAP1 POP JUMP JUMPDEST PUSH1 0x1 DUP2 DUP2 SLOAD DUP2 LT PUSH2 0x1DF JUMPI INVALID JUMPDEST PUSH1 0x0 SWAP2 DUP3 MSTORE PUSH1 0x20 SWAP1 SWAP2 KECCAK256 ADD SLOAD SWAP1 POP DUP2 JUMP JUMPDEST PUSH1 0x0 PUSH1 0x20 DUP2 SWAP1 MSTORE SWAP1 DUP2 MSTORE PUSH1 0x40 SWAP1 KECCAK256 SLOAD DUP2 JUMP JUMPDEST PUSH1 0x0 DUP1 JUMPDEST PUSH1 0x1 SLOAD DUP2 LT ISZERO PUSH2 0x241 JUMPI DUP3 PUSH1 0x1 DUP3 DUP2 SLOAD DUP2 LT PUSH2 0x21E JUMPI INVALID JUMPDEST SWAP1 PUSH1 0x0 MSTORE PUSH1 0x20 PUSH1 0x0 KECCAK256 ADD SLOAD EQ ISZERO PUSH2 0x239 JUMPI PUSH1 0x1 SWAP2 POP POP PUSH2 0x1CD JUMP JUMPDEST PUSH1 0x1 ADD PUSH2 0x206 JUMP JUMPDEST POP PUSH1 0x0 SWAP3 SWAP2 POP POP JUMP INVALID COINBASE KECCAK256 PUSH16 0x70C383C2A7C383C2A36F206465766520 PUSH20 0x65722076C383C2A16C69646121A165627A7A7230 PC KECCAK256 PUSH29 0x4111A00EF23C082D5D78D77B389967198CFFDC348DF5680A2DDCA3DB84 0x24 0xe4 STOP 0x29 ",
  "sha1": "cdd81620eff6cf7516620b29ea1baac95f18e376",
  "source": "pragma solidity >=0.4.0;\n\ncontract Votacao {\n    // Votos recebidos\n    mapping (bytes32 => uint256) public votosRecebidos;\n\n    // OpÃ§Ãµes da cÃ©dula\n    bytes32[] public opcoes;\n\n    // Inicializa com as opÃ§Ãµes da votaÃ§Ã£o\n    constructor(bytes32[] memory options) public {\n        opcoes = options;\n    }\n\n    // Total de votos de uma opÃ§Ã£o\n    function votosTotais(bytes32 opcao) public view returns (uint256) {\n        require(opcaoValida(opcao),'A opÃ§Ã£o deve ser vÃ¡lida!');\n        return votosRecebidos[opcao];\n    }\n\n    // Aceita o voto em uma das opÃ§Ãµes\n    function votarNaOpcao(bytes32 opcao) public {\n        require(opcaoValida(opcao),'A opÃ§Ã£o deve ser vÃ¡lida!');\n        votosRecebidos[opcao] += 1;\n    }\n\n    // Valida a opÃ§Ã£o de votacao\n    function opcaoValida(bytes32 opcao) public view returns (bool) {\n        for(uint i = 0; i < opcoes.length; i++) {\n            if (opcoes[i] == opcao) {\n                return true;\n            }\n        }\n        return false;\n    }\n}",
  "sourcePath": "contracts\\votacao.sol",
  "type": "contract"
}